{
  "contractName": "FallbackManager",
  "abi": [
    {
      "payable": true,
      "stateMutability": "payable",
      "type": "fallback"
    },
    {
      "anonymous": false,
      "inputs": [
        {
          "indexed": false,
          "internalType": "address",
          "name": "from",
          "type": "address"
        },
        {
          "indexed": false,
          "internalType": "uint256",
          "name": "value",
          "type": "uint256"
        }
      ],
      "name": "IncomingTransaction",
      "type": "event"
    },
    {
      "constant": false,
      "inputs": [
        {
          "internalType": "address",
          "name": "handler",
          "type": "address"
        }
      ],
      "name": "setFallbackHandler",
      "outputs": [],
      "payable": false,
      "stateMutability": "nonpayable",
      "type": "function"
    }
  ],
  "bytecode": "0x608060405234801561001057600080fd5b506102a4806100206000396000f3fe60806040526004361061001e5760003560e01c8063f08a032314610133575b60003411806100305750600080369050145b156100a5577f91dd3a56c77e57dda9f470fd8d03a3a6b30a9693edc3a446510682d686cc6d2f3334604051808373ffffffffffffffffffffffffffffffffffffffff1673ffffffffffffffffffffffffffffffffffffffff1681526020018281526020019250505060405180910390a1610131565b60007f6c9a6c4a39284e37ed1cf53d337577d14212a4870fb976a4366c693b939918d560001b9050600081549050600073ffffffffffffffffffffffffffffffffffffffff168173ffffffffffffffffffffffffffffffffffffffff161461012e57366000803760008036600080855af13d6000803e6000811415610129573d6000fd5b3d6000f35b50505b005b34801561013f57600080fd5b506101826004803603602081101561015657600080fd5b81019080803573ffffffffffffffffffffffffffffffffffffffff169060200190929190505050610184565b005b3073ffffffffffffffffffffffffffffffffffffffff163373ffffffffffffffffffffffffffffffffffffffff1614610208576040517f08c379a000000000000000000000000000000000000000000000000000000000815260040180806020018281038252602c815260200180610244602c913960400191505060405180910390fd5b61021181610214565b50565b60007f6c9a6c4a39284e37ed1cf53d337577d14212a4870fb976a4366c693b939918d560001b9050818155505056fe4d6574686f642063616e206f6e6c792062652063616c6c65642066726f6d207468697320636f6e7472616374a265627a7a7231582099c8da8a2b3398219dbab201217dc1b0b238ce1483a9b4c95c86eaa99ff0876c64736f6c634300050b0032",
  "source": "pragma solidity >=0.5.0 <0.7.0;\n\nimport \"../common/SelfAuthorized.sol\";\n\n/// @title Fallback Manager - A contract that manages fallback calls made to this contract\n/// @author Richard Meissner - <richard@gnosis.pm>\ncontract FallbackManager is SelfAuthorized {\n\n    event IncomingTransaction(address from, uint256 value);\n\n    // keccak256(\"fallback_manager.handler.address\")\n    bytes32 internal constant FALLBACK_HANDLER_STORAGE_SLOT = 0x6c9a6c4a39284e37ed1cf53d337577d14212a4870fb976a4366c693b939918d5;\n\n    function internalSetFallbackHandler(address handler) internal {\n        bytes32 slot = FALLBACK_HANDLER_STORAGE_SLOT;\n        // solium-disable-next-line security/no-inline-assembly\n        assembly {\n            sstore(slot, handler)\n        }\n    }\n\n    /// @dev Allows to add a contract to handle fallback calls.\n    ///      Only fallback calls without value and with data will be forwarded.\n    ///      This can only be done via a Safe transaction.\n    /// @param handler contract to handle fallbacks calls.\n    function setFallbackHandler(address handler)\n        public\n        authorized\n    {\n        internalSetFallbackHandler(handler);\n    }\n\n    function ()\n        external\n        payable\n    {\n        // Only calls without value and with data will be forwarded\n        if (msg.value > 0 || msg.data.length == 0) {\n            emit IncomingTransaction(msg.sender, msg.value);\n            return;\n        }\n        bytes32 slot = FALLBACK_HANDLER_STORAGE_SLOT;\n        address handler;\n        // solium-disable-next-line security/no-inline-assembly\n        assembly {\n            handler := sload(slot)\n        }\n\n        if (handler != address(0)) {\n            // solium-disable-next-line security/no-inline-assembly\n            assembly {\n                calldatacopy(0, 0, calldatasize())\n                let success := call(gas, handler, 0, 0, calldatasize(), 0, 0)\n                returndatacopy(0, 0, returndatasize())\n                if eq(success, 0) { revert(0, returndatasize()) }\n                return(0, returndatasize())\n            }\n        }\n    }\n}",
  "sourcePath": "/Users/admin/Documents/GitHub/contracts/safe-contracts/contracts/base/FallbackManager.sol",
  "compiler": {
    "name": "solc",
    "version": "0.5.11+commit.c082d0b4.Emscripten.clang"
  },
  "schemaVersion": "2.0.3",
  "updatedAt": "2019-11-10T01:32:19.347Z"
}