{
  "contractName": "GnosisSafe",
  "abi": [
    {
      "constant": false,
      "inputs": [
        {
          "internalType": "address",
          "name": "owner",
          "type": "address"
        },
        {
          "internalType": "uint256",
          "name": "_threshold",
          "type": "uint256"
        }
      ],
      "name": "addOwnerWithThreshold",
      "outputs": [],
      "payable": false,
      "stateMutability": "nonpayable",
      "type": "function"
    },
    {
      "constant": true,
      "inputs": [],
      "name": "DOMAIN_SEPARATOR_TYPEHASH",
      "outputs": [
        {
          "internalType": "bytes32",
          "name": "",
          "type": "bytes32"
        }
      ],
      "payable": false,
      "stateMutability": "view",
      "type": "function"
    },
    {
      "constant": true,
      "inputs": [
        {
          "internalType": "address",
          "name": "owner",
          "type": "address"
        }
      ],
      "name": "isOwner",
      "outputs": [
        {
          "internalType": "bool",
          "name": "",
          "type": "bool"
        }
      ],
      "payable": false,
      "stateMutability": "view",
      "type": "function"
    },
    {
      "constant": false,
      "inputs": [
        {
          "internalType": "address",
          "name": "to",
          "type": "address"
        },
        {
          "internalType": "uint256",
          "name": "value",
          "type": "uint256"
        },
        {
          "internalType": "bytes",
          "name": "data",
          "type": "bytes"
        },
        {
          "internalType": "enum Enum.Operation",
          "name": "operation",
          "type": "uint8"
        }
      ],
      "name": "execTransactionFromModule",
      "outputs": [
        {
          "internalType": "bool",
          "name": "success",
          "type": "bool"
        }
      ],
      "payable": false,
      "stateMutability": "nonpayable",
      "type": "function"
    },
    {
      "constant": false,
      "inputs": [
        {
          "internalType": "address",
          "name": "to",
          "type": "address"
        },
        {
          "internalType": "uint256",
          "name": "value",
          "type": "uint256"
        },
        {
          "internalType": "bytes",
          "name": "data",
          "type": "bytes"
        },
        {
          "internalType": "enum Enum.Operation",
          "name": "operation",
          "type": "uint8"
        }
      ],
      "name": "execTransactionFromModuleReturnData",
      "outputs": [
        {
          "internalType": "bool",
          "name": "success",
          "type": "bool"
        },
        {
          "internalType": "bytes",
          "name": "returnData",
          "type": "bytes"
        }
      ],
      "payable": false,
      "stateMutability": "nonpayable",
      "type": "function"
    },
    {
      "constant": true,
      "inputs": [
        {
          "internalType": "bytes32",
          "name": "",
          "type": "bytes32"
        }
      ],
      "name": "signedMessages",
      "outputs": [
        {
          "internalType": "uint256",
          "name": "",
          "type": "uint256"
        }
      ],
      "payable": false,
      "stateMutability": "view",
      "type": "function"
    },
    {
      "constant": false,
      "inputs": [
        {
          "internalType": "contract Module",
          "name": "module",
          "type": "address"
        }
      ],
      "name": "enableModule",
      "outputs": [],
      "payable": false,
      "stateMutability": "nonpayable",
      "type": "function"
    },
    {
      "constant": false,
      "inputs": [
        {
          "internalType": "uint256",
          "name": "_threshold",
          "type": "uint256"
        }
      ],
      "name": "changeThreshold",
      "outputs": [],
      "payable": false,
      "stateMutability": "nonpayable",
      "type": "function"
    },
    {
      "constant": true,
      "inputs": [
        {
          "internalType": "address",
          "name": "",
          "type": "address"
        },
        {
          "internalType": "bytes32",
          "name": "",
          "type": "bytes32"
        }
      ],
      "name": "approvedHashes",
      "outputs": [
        {
          "internalType": "uint256",
          "name": "",
          "type": "uint256"
        }
      ],
      "payable": false,
      "stateMutability": "view",
      "type": "function"
    },
    {
      "constant": false,
      "inputs": [
        {
          "internalType": "address",
          "name": "_masterCopy",
          "type": "address"
        }
      ],
      "name": "changeMasterCopy",
      "outputs": [],
      "payable": false,
      "stateMutability": "nonpayable",
      "type": "function"
    },
    {
      "constant": true,
      "inputs": [],
      "name": "SENTINEL_MODULES",
      "outputs": [
        {
          "internalType": "address",
          "name": "",
          "type": "address"
        }
      ],
      "payable": false,
      "stateMutability": "view",
      "type": "function"
    },
    {
      "constant": true,
      "inputs": [],
      "name": "SENTINEL_OWNERS",
      "outputs": [
        {
          "internalType": "address",
          "name": "",
          "type": "address"
        }
      ],
      "payable": false,
      "stateMutability": "view",
      "type": "function"
    },
    {
      "constant": true,
      "inputs": [],
      "name": "getOwners",
      "outputs": [
        {
          "internalType": "address[]",
          "name": "",
          "type": "address[]"
        }
      ],
      "payable": false,
      "stateMutability": "view",
      "type": "function"
    },
    {
      "constant": true,
      "inputs": [],
      "name": "NAME",
      "outputs": [
        {
          "internalType": "string",
          "name": "",
          "type": "string"
        }
      ],
      "payable": false,
      "stateMutability": "view",
      "type": "function"
    },
    {
      "constant": true,
      "inputs": [],
      "name": "nonce",
      "outputs": [
        {
          "internalType": "uint256",
          "name": "",
          "type": "uint256"
        }
      ],
      "payable": false,
      "stateMutability": "view",
      "type": "function"
    },
    {
      "constant": true,
      "inputs": [],
      "name": "getModules",
      "outputs": [
        {
          "internalType": "address[]",
          "name": "",
          "type": "address[]"
        }
      ],
      "payable": false,
      "stateMutability": "view",
      "type": "function"
    },
    {
      "constant": true,
      "inputs": [],
      "name": "SAFE_MSG_TYPEHASH",
      "outputs": [
        {
          "internalType": "bytes32",
          "name": "",
          "type": "bytes32"
        }
      ],
      "payable": false,
      "stateMutability": "view",
      "type": "function"
    },
    {
      "constant": true,
      "inputs": [],
      "name": "SAFE_TX_TYPEHASH",
      "outputs": [
        {
          "internalType": "bytes32",
          "name": "",
          "type": "bytes32"
        }
      ],
      "payable": false,
      "stateMutability": "view",
      "type": "function"
    },
    {
      "constant": false,
      "inputs": [
        {
          "internalType": "contract Module",
          "name": "prevModule",
          "type": "address"
        },
        {
          "internalType": "contract Module",
          "name": "module",
          "type": "address"
        }
      ],
      "name": "disableModule",
      "outputs": [],
      "payable": false,
      "stateMutability": "nonpayable",
      "type": "function"
    },
    {
      "constant": false,
      "inputs": [
        {
          "internalType": "address",
          "name": "prevOwner",
          "type": "address"
        },
        {
          "internalType": "address",
          "name": "oldOwner",
          "type": "address"
        },
        {
          "internalType": "address",
          "name": "newOwner",
          "type": "address"
        }
      ],
      "name": "swapOwner",
      "outputs": [],
      "payable": false,
      "stateMutability": "nonpayable",
      "type": "function"
    },
    {
      "constant": true,
      "inputs": [],
      "name": "getThreshold",
      "outputs": [
        {
          "internalType": "uint256",
          "name": "",
          "type": "uint256"
        }
      ],
      "payable": false,
      "stateMutability": "view",
      "type": "function"
    },
    {
      "constant": false,
      "inputs": [
        {
          "internalType": "address",
          "name": "handler",
          "type": "address"
        }
      ],
      "name": "setFallbackHandler",
      "outputs": [],
      "payable": false,
      "stateMutability": "nonpayable",
      "type": "function"
    },
    {
      "constant": true,
      "inputs": [],
      "name": "domainSeparator",
      "outputs": [
        {
          "internalType": "bytes32",
          "name": "",
          "type": "bytes32"
        }
      ],
      "payable": false,
      "stateMutability": "view",
      "type": "function"
    },
    {
      "constant": false,
      "inputs": [
        {
          "internalType": "address",
          "name": "prevOwner",
          "type": "address"
        },
        {
          "internalType": "address",
          "name": "owner",
          "type": "address"
        },
        {
          "internalType": "uint256",
          "name": "_threshold",
          "type": "uint256"
        }
      ],
      "name": "removeOwner",
      "outputs": [],
      "payable": false,
      "stateMutability": "nonpayable",
      "type": "function"
    },
    {
      "constant": true,
      "inputs": [],
      "name": "VERSION",
      "outputs": [
        {
          "internalType": "string",
          "name": "",
          "type": "string"
        }
      ],
      "payable": false,
      "stateMutability": "view",
      "type": "function"
    },
    {
      "payable": true,
      "stateMutability": "payable",
      "type": "fallback"
    },
    {
      "anonymous": false,
      "inputs": [
        {
          "indexed": true,
          "internalType": "bytes32",
          "name": "approvedHash",
          "type": "bytes32"
        },
        {
          "indexed": true,
          "internalType": "address",
          "name": "owner",
          "type": "address"
        }
      ],
      "name": "ApproveHash",
      "type": "event"
    },
    {
      "anonymous": false,
      "inputs": [
        {
          "indexed": true,
          "internalType": "bytes32",
          "name": "msgHash",
          "type": "bytes32"
        }
      ],
      "name": "SignMsg",
      "type": "event"
    },
    {
      "anonymous": false,
      "inputs": [
        {
          "indexed": false,
          "internalType": "bytes32",
          "name": "txHash",
          "type": "bytes32"
        },
        {
          "indexed": false,
          "internalType": "uint256",
          "name": "payment",
          "type": "uint256"
        }
      ],
      "name": "ExecutionFailure",
      "type": "event"
    },
    {
      "anonymous": false,
      "inputs": [
        {
          "indexed": false,
          "internalType": "bytes32",
          "name": "txHash",
          "type": "bytes32"
        },
        {
          "indexed": false,
          "internalType": "uint256",
          "name": "payment",
          "type": "uint256"
        }
      ],
      "name": "ExecutionSuccess",
      "type": "event"
    },
    {
      "anonymous": false,
      "inputs": [
        {
          "indexed": false,
          "internalType": "address",
          "name": "from",
          "type": "address"
        },
        {
          "indexed": false,
          "internalType": "uint256",
          "name": "value",
          "type": "uint256"
        }
      ],
      "name": "IncomingTransaction",
      "type": "event"
    },
    {
      "anonymous": false,
      "inputs": [
        {
          "indexed": false,
          "internalType": "address",
          "name": "owner",
          "type": "address"
        }
      ],
      "name": "AddedOwner",
      "type": "event"
    },
    {
      "anonymous": false,
      "inputs": [
        {
          "indexed": false,
          "internalType": "address",
          "name": "owner",
          "type": "address"
        }
      ],
      "name": "RemovedOwner",
      "type": "event"
    },
    {
      "anonymous": false,
      "inputs": [
        {
          "indexed": false,
          "internalType": "uint256",
          "name": "threshold",
          "type": "uint256"
        }
      ],
      "name": "ChangedThreshold",
      "type": "event"
    },
    {
      "anonymous": false,
      "inputs": [
        {
          "indexed": false,
          "internalType": "contract Module",
          "name": "module",
          "type": "address"
        }
      ],
      "name": "EnabledModule",
      "type": "event"
    },
    {
      "anonymous": false,
      "inputs": [
        {
          "indexed": false,
          "internalType": "contract Module",
          "name": "module",
          "type": "address"
        }
      ],
      "name": "DisabledModule",
      "type": "event"
    },
    {
      "anonymous": false,
      "inputs": [
        {
          "indexed": true,
          "internalType": "address",
          "name": "module",
          "type": "address"
        }
      ],
      "name": "ExecutionFromModuleSuccess",
      "type": "event"
    },
    {
      "anonymous": false,
      "inputs": [
        {
          "indexed": true,
          "internalType": "address",
          "name": "module",
          "type": "address"
        }
      ],
      "name": "ExecutionFromModuleFailure",
      "type": "event"
    },
    {
      "anonymous": false,
      "inputs": [
        {
          "indexed": false,
          "internalType": "address",
          "name": "newContract",
          "type": "address"
        }
      ],
      "name": "ContractCreation",
      "type": "event"
    },
    {
      "anonymous": false,
      "inputs": [
        {
          "indexed": false,
          "internalType": "address",
          "name": "masterCopy",
          "type": "address"
        }
      ],
      "name": "ChangedMasterCopy",
      "type": "event"
    },
    {
      "constant": false,
      "inputs": [
        {
          "internalType": "address[]",
          "name": "_owners",
          "type": "address[]"
        },
        {
          "internalType": "uint256",
          "name": "_threshold",
          "type": "uint256"
        },
        {
          "internalType": "address",
          "name": "to",
          "type": "address"
        },
        {
          "internalType": "bytes",
          "name": "data",
          "type": "bytes"
        },
        {
          "internalType": "address",
          "name": "fallbackHandler",
          "type": "address"
        },
        {
          "internalType": "address",
          "name": "paymentToken",
          "type": "address"
        },
        {
          "internalType": "uint256",
          "name": "payment",
          "type": "uint256"
        },
        {
          "internalType": "address payable",
          "name": "paymentReceiver",
          "type": "address"
        }
      ],
      "name": "setup",
      "outputs": [],
      "payable": false,
      "stateMutability": "nonpayable",
      "type": "function"
    },
    {
      "constant": false,
      "inputs": [
        {
          "internalType": "address",
          "name": "to",
          "type": "address"
        },
        {
          "internalType": "uint256",
          "name": "value",
          "type": "uint256"
        },
        {
          "internalType": "bytes",
          "name": "data",
          "type": "bytes"
        },
        {
          "internalType": "enum Enum.Operation",
          "name": "operation",
          "type": "uint8"
        },
        {
          "internalType": "uint256",
          "name": "safeTxGas",
          "type": "uint256"
        },
        {
          "internalType": "uint256",
          "name": "baseGas",
          "type": "uint256"
        },
        {
          "internalType": "uint256",
          "name": "gasPrice",
          "type": "uint256"
        },
        {
          "internalType": "address",
          "name": "gasToken",
          "type": "address"
        },
        {
          "internalType": "address payable",
          "name": "refundReceiver",
          "type": "address"
        },
        {
          "internalType": "bytes",
          "name": "signatures",
          "type": "bytes"
        }
      ],
      "name": "execTransaction",
      "outputs": [
        {
          "internalType": "bool",
          "name": "success",
          "type": "bool"
        }
      ],
      "payable": false,
      "stateMutability": "nonpayable",
      "type": "function"
    },
    {
      "constant": false,
      "inputs": [
        {
          "internalType": "address",
          "name": "to",
          "type": "address"
        },
        {
          "internalType": "uint256",
          "name": "value",
          "type": "uint256"
        },
        {
          "internalType": "bytes",
          "name": "data",
          "type": "bytes"
        },
        {
          "internalType": "enum Enum.Operation",
          "name": "operation",
          "type": "uint8"
        }
      ],
      "name": "requiredTxGas",
      "outputs": [
        {
          "internalType": "uint256",
          "name": "",
          "type": "uint256"
        }
      ],
      "payable": false,
      "stateMutability": "nonpayable",
      "type": "function"
    },
    {
      "constant": false,
      "inputs": [
        {
          "internalType": "bytes32",
          "name": "hashToApprove",
          "type": "bytes32"
        }
      ],
      "name": "approveHash",
      "outputs": [],
      "payable": false,
      "stateMutability": "nonpayable",
      "type": "function"
    },
    {
      "constant": false,
      "inputs": [
        {
          "internalType": "bytes",
          "name": "_data",
          "type": "bytes"
        }
      ],
      "name": "signMessage",
      "outputs": [],
      "payable": false,
      "stateMutability": "nonpayable",
      "type": "function"
    },
    {
      "constant": false,
      "inputs": [
        {
          "internalType": "bytes",
          "name": "_data",
          "type": "bytes"
        },
        {
          "internalType": "bytes",
          "name": "_signature",
          "type": "bytes"
        }
      ],
      "name": "isValidSignature",
      "outputs": [
        {
          "internalType": "bytes4",
          "name": "",
          "type": "bytes4"
        }
      ],
      "payable": false,
      "stateMutability": "nonpayable",
      "type": "function"
    },
    {
      "constant": true,
      "inputs": [
        {
          "internalType": "bytes",
          "name": "message",
          "type": "bytes"
        }
      ],
      "name": "getMessageHash",
      "outputs": [
        {
          "internalType": "bytes32",
          "name": "",
          "type": "bytes32"
        }
      ],
      "payable": false,
      "stateMutability": "view",
      "type": "function"
    },
    {
      "constant": true,
      "inputs": [
        {
          "internalType": "address",
          "name": "to",
          "type": "address"
        },
        {
          "internalType": "uint256",
          "name": "value",
          "type": "uint256"
        },
        {
          "internalType": "bytes",
          "name": "data",
          "type": "bytes"
        },
        {
          "internalType": "enum Enum.Operation",
          "name": "operation",
          "type": "uint8"
        },
        {
          "internalType": "uint256",
          "name": "safeTxGas",
          "type": "uint256"
        },
        {
          "internalType": "uint256",
          "name": "baseGas",
          "type": "uint256"
        },
        {
          "internalType": "uint256",
          "name": "gasPrice",
          "type": "uint256"
        },
        {
          "internalType": "address",
          "name": "gasToken",
          "type": "address"
        },
        {
          "internalType": "address",
          "name": "refundReceiver",
          "type": "address"
        },
        {
          "internalType": "uint256",
          "name": "_nonce",
          "type": "uint256"
        }
      ],
      "name": "encodeTransactionData",
      "outputs": [
        {
          "internalType": "bytes",
          "name": "",
          "type": "bytes"
        }
      ],
      "payable": false,
      "stateMutability": "view",
      "type": "function"
    },
    {
      "constant": true,
      "inputs": [
        {
          "internalType": "address",
          "name": "to",
          "type": "address"
        },
        {
          "internalType": "uint256",
          "name": "value",
          "type": "uint256"
        },
        {
          "internalType": "bytes",
          "name": "data",
          "type": "bytes"
        },
        {
          "internalType": "enum Enum.Operation",
          "name": "operation",
          "type": "uint8"
        },
        {
          "internalType": "uint256",
          "name": "safeTxGas",
          "type": "uint256"
        },
        {
          "internalType": "uint256",
          "name": "baseGas",
          "type": "uint256"
        },
        {
          "internalType": "uint256",
          "name": "gasPrice",
          "type": "uint256"
        },
        {
          "internalType": "address",
          "name": "gasToken",
          "type": "address"
        },
        {
          "internalType": "address",
          "name": "refundReceiver",
          "type": "address"
        },
        {
          "internalType": "uint256",
          "name": "_nonce",
          "type": "uint256"
        }
      ],
      "name": "getTransactionHash",
      "outputs": [
        {
          "internalType": "bytes32",
          "name": "",
          "type": "bytes32"
        }
      ],
      "payable": false,
      "stateMutability": "view",
      "type": "function"
    }
  ],
  "bytecode": "0x608060405234801561001057600080fd5b50615f7980620000216000396000f3fe6080604052600436106101f95760003560e01c8063a3f4df7e1161010d578063d8d11f78116100a0578063e86637db1161006f578063e86637db14611406578063f08a0323146115e7578063f698da2514611638578063f8dc5dd914611663578063ffa1ad74146116de576101f9565b8063d8d11f781461115d578063e009cfde146112d9578063e318b52b1461134a578063e75235b8146113db576101f9565b8063c0856ffc116100dc578063c0856ffc14610ffb578063c4ca3a9c14611026578063ccafc387146110f7578063d4d9bdcd14611122576101f9565b8063a3f4df7e14610d64578063affed0e014610df4578063b2494df314610e1f578063b63e800d14610e8b576101f9565b8063610b5925116101905780637de7edef1161015f5780637de7edef14610b7357806385a5affe14610bc457806385e332cd14610c4a5780638cff635514610ca1578063a0e67e2b14610cf8576101f9565b8063610b5925146108ef578063694e80c3146109405780636a7612021461097b5780637d83297414610b04576101f9565b80632f54bf6e116101cc5780632f54bf6e1461059d578063468721a7146106065780635229073f1461071d5780635ae6bd37146108a0576101f9565b80630a1028c41461030e5780630d582f13146103ea5780631db61b541461044557806320c13b0b14610470575b600034118061020b5750600080369050145b15610280577f91dd3a56c77e57dda9f470fd8d03a3a6b30a9693edc3a446510682d686cc6d2f3334604051808373ffffffffffffffffffffffffffffffffffffffff1673ffffffffffffffffffffffffffffffffffffffff1681526020018281526020019250505060405180910390a161030c565b60007f6c9a6c4a39284e37ed1cf53d337577d14212a4870fb976a4366c693b939918d560001b9050600081549050600073ffffffffffffffffffffffffffffffffffffffff168173ffffffffffffffffffffffffffffffffffffffff161461030957366000803760008036600080855af13d6000803e6000811415610304573d6000fd5b3d6000f35b50505b005b34801561031a57600080fd5b506103d46004803603602081101561033157600080fd5b810190808035906020019064010000000081111561034e57600080fd5b82018360208201111561036057600080fd5b8035906020019184600183028401116401000000008311171561038257600080fd5b91908080601f016020809104026020016040519081016040528093929190818152602001838380828437600081840152601f19601f82011690508083019250505050505050919291929050505061176e565b6040518082815260200191505060405180910390f35b3480156103f657600080fd5b506104436004803603604081101561040d57600080fd5b81019080803573ffffffffffffffffffffffffffffffffffffffff169060200190929190803590602001909291905050506118a5565b005b34801561045157600080fd5b5061045a611cef565b6040518082815260200191505060405180910390f35b34801561047c57600080fd5b506105496004803603604081101561049357600080fd5b81019080803590602001906401000000008111156104b057600080fd5b8201836020820111156104c257600080fd5b803590602001918460018302840111640100000000831117156104e457600080fd5b90919293919293908035906020019064010000000081111561050557600080fd5b82018360208201111561051757600080fd5b8035906020019184600183028401116401000000008311171561053957600080fd5b9091929391929390505050611d16565b60405180827bffffffffffffffffffffffffffffffffffffffffffffffffffffffff19167bffffffffffffffffffffffffffffffffffffffffffffffffffffffff1916815260200191505060405180910390f35b3480156105a957600080fd5b506105ec600480360360208110156105c057600080fd5b81019080803573ffffffffffffffffffffffffffffffffffffffff169060200190929190505050611eac565b604051808215151515815260200191505060405180910390f35b34801561061257600080fd5b506107036004803603608081101561062957600080fd5b81019080803573ffffffffffffffffffffffffffffffffffffffff169060200190929190803590602001909291908035906020019064010000000081111561067057600080fd5b82018360208201111561068257600080fd5b803590602001918460018302840111640100000000831117156106a457600080fd5b91908080601f016020809104026020016040519081016040528093929190818152602001838380828437600081840152601f19601f820116905080830192505050505050509192919290803560ff169060200190929190505050611f7e565b604051808215151515815260200191505060405180910390f35b34801561072957600080fd5b5061081a6004803603608081101561074057600080fd5b81019080803573ffffffffffffffffffffffffffffffffffffffff169060200190929190803590602001909291908035906020019064010000000081111561078757600080fd5b82018360208201111561079957600080fd5b803590602001918460018302840111640100000000831117156107bb57600080fd5b91908080601f016020809104026020016040519081016040528093929190818152602001838380828437600081840152601f19601f820116905080830192505050505050509192919290803560ff169060200190929190505050612147565b604051808315151515815260200180602001828103825283818151815260200191508051906020019080838360005b83811015610864578082015181840152602081019050610849565b50505050905090810190601f1680156108915780820380516001836020036101000a031916815260200191505b50935050505060405180910390f35b3480156108ac57600080fd5b506108d9600480360360208110156108c357600080fd5b810190808035906020019092919050505061217d565b6040518082815260200191505060405180910390f35b3480156108fb57600080fd5b5061093e6004803603602081101561091257600080fd5b81019080803573ffffffffffffffffffffffffffffffffffffffff169060200190929190505050612195565b005b34801561094c57600080fd5b506109796004803603602081101561096357600080fd5b81019080803590602001909291905050506125b9565b005b34801561098757600080fd5b50610aea600480360361014081101561099f57600080fd5b81019080803573ffffffffffffffffffffffffffffffffffffffff16906020019092919080359060200190929190803590602001906401000000008111156109e657600080fd5b8201836020820111156109f857600080fd5b80359060200191846001830284011164010000000083111715610a1a57600080fd5b9091929391929390803560ff169060200190929190803590602001909291908035906020019092919080359060200190929190803573ffffffffffffffffffffffffffffffffffffffff169060200190929190803573ffffffffffffffffffffffffffffffffffffffff16906020019092919080359060200190640100000000811115610aa657600080fd5b820183602082011115610ab857600080fd5b80359060200191846001830284011164010000000083111715610ada57600080fd5b9091929391929390505050612735565b604051808215151515815260200191505060405180910390f35b348015610b1057600080fd5b50610b5d60048036036040811015610b2757600080fd5b81019080803573ffffffffffffffffffffffffffffffffffffffff1690602001909291908035906020019092919050505061299e565b6040518082815260200191505060405180910390f35b348015610b7f57600080fd5b50610bc260048036036020811015610b9657600080fd5b81019080803573ffffffffffffffffffffffffffffffffffffffff1690602001909291905050506129c3565b005b348015610bd057600080fd5b50610c4860048036036020811015610be757600080fd5b8101908080359060200190640100000000811115610c0457600080fd5b820183602082011115610c1657600080fd5b80359060200191846001830284011164010000000083111715610c3857600080fd5b9091929391929390505050612b73565b005b348015610c5657600080fd5b50610c5f612c93565b604051808273ffffffffffffffffffffffffffffffffffffffff1673ffffffffffffffffffffffffffffffffffffffff16815260200191505060405180910390f35b348015610cad57600080fd5b50610cb6612c98565b604051808273ffffffffffffffffffffffffffffffffffffffff1673ffffffffffffffffffffffffffffffffffffffff16815260200191505060405180910390f35b348015610d0457600080fd5b50610d0d612c9d565b6040518080602001828103825283818151815260200191508051906020019060200280838360005b83811015610d50578082015181840152602081019050610d35565b505050509050019250505060405180910390f35b348015610d7057600080fd5b50610d79612e32565b6040518080602001828103825283818151815260200191508051906020019080838360005b83811015610db9578082015181840152602081019050610d9e565b50505050905090810190601f168015610de65780820380516001836020036101000a031916815260200191505b509250505060405180910390f35b348015610e0057600080fd5b50610e09612e6b565b6040518082815260200191505060405180910390f35b348015610e2b57600080fd5b50610e34612e71565b6040518080602001828103825283818151815260200191508051906020019060200280838360005b83811015610e77578082015181840152602081019050610e5c565b505050509050019250505060405180910390f35b348015610e9757600080fd5b50610ff96004803603610100811015610eaf57600080fd5b8101908080359060200190640100000000811115610ecc57600080fd5b820183602082011115610ede57600080fd5b80359060200191846020830284011164010000000083111715610f0057600080fd5b909192939192939080359060200190929190803573ffffffffffffffffffffffffffffffffffffffff16906020019092919080359060200190640100000000811115610f4b57600080fd5b820183602082011115610f5d57600080fd5b80359060200191846001830284011164010000000083111715610f7f57600080fd5b9091929391929390803573ffffffffffffffffffffffffffffffffffffffff169060200190929190803573ffffffffffffffffffffffffffffffffffffffff16906020019092919080359060200190929190803573ffffffffffffffffffffffffffffffffffffffff169060200190929190505050613110565b005b34801561100757600080fd5b5061101061330b565b6040518082815260200191505060405180910390f35b34801561103257600080fd5b506110e16004803603608081101561104957600080fd5b81019080803573ffffffffffffffffffffffffffffffffffffffff169060200190929190803590602001909291908035906020019064010000000081111561109057600080fd5b8201836020820111156110a257600080fd5b803590602001918460018302840111640100000000831117156110c457600080fd5b9091929391929390803560ff169060200190929190505050613332565b6040518082815260200191505060405180910390f35b34801561110357600080fd5b5061110c6134df565b6040518082815260200191505060405180910390f35b34801561112e57600080fd5b5061115b6004803603602081101561114557600080fd5b8101908080359060200190929190505050613506565b005b34801561116957600080fd5b506112c3600480360361014081101561118157600080fd5b81019080803573ffffffffffffffffffffffffffffffffffffffff16906020019092919080359060200190929190803590602001906401000000008111156111c857600080fd5b8201836020820111156111da57600080fd5b803590602001918460018302840111640100000000831117156111fc57600080fd5b91908080601f016020809104026020016040519081016040528093929190818152602001838380828437600081840152601f19601f820116905080830192505050505050509192919290803560ff169060200190929190803590602001909291908035906020019092919080359060200190929190803573ffffffffffffffffffffffffffffffffffffffff169060200190929190803573ffffffffffffffffffffffffffffffffffffffff169060200190929190803590602001909291905050506136a5565b6040518082815260200191505060405180910390f35b3480156112e557600080fd5b50611348600480360360408110156112fc57600080fd5b81019080803573ffffffffffffffffffffffffffffffffffffffff169060200190929190803573ffffffffffffffffffffffffffffffffffffffff1690602001909291905050506136d0565b005b34801561135657600080fd5b506113d96004803603606081101561136d57600080fd5b81019080803573ffffffffffffffffffffffffffffffffffffffff169060200190929190803573ffffffffffffffffffffffffffffffffffffffff169060200190929190803573ffffffffffffffffffffffffffffffffffffffff169060200190929190505050613ad6565b005b3480156113e757600080fd5b506113f061419b565b6040518082815260200191505060405180910390f35b34801561141257600080fd5b5061156c600480360361014081101561142a57600080fd5b81019080803573ffffffffffffffffffffffffffffffffffffffff169060200190929190803590602001909291908035906020019064010000000081111561147157600080fd5b82018360208201111561148357600080fd5b803590602001918460018302840111640100000000831117156114a557600080fd5b91908080601f016020809104026020016040519081016040528093929190818152602001838380828437600081840152601f19601f820116905080830192505050505050509192919290803560ff169060200190929190803590602001909291908035906020019092919080359060200190929190803573ffffffffffffffffffffffffffffffffffffffff169060200190929190803573ffffffffffffffffffffffffffffffffffffffff169060200190929190803590602001909291905050506141a5565b6040518080602001828103825283818151815260200191508051906020019080838360005b838110156115ac578082015181840152602081019050611591565b50505050905090810190601f1680156115d95780820380516001836020036101000a031916815260200191505b509250505060405180910390f35b3480156115f357600080fd5b506116366004803603602081101561160a57600080fd5b81019080803573ffffffffffffffffffffffffffffffffffffffff1690602001909291905050506143b9565b005b34801561164457600080fd5b5061164d614449565b6040518082815260200191505060405180910390f35b34801561166f57600080fd5b506116dc6004803603606081101561168657600080fd5b81019080803573ffffffffffffffffffffffffffffffffffffffff169060200190929190803573ffffffffffffffffffffffffffffffffffffffff1690602001909291908035906020019092919050505061444f565b005b3480156116ea57600080fd5b506116f36148da565b6040518080602001828103825283818151815260200191508051906020019080838360005b83811015611733578082015181840152602081019050611718565b50505050905090810190601f1680156117605780820380516001836020036101000a031916815260200191505b509250505060405180910390f35b6000807f60b3cbf8b4a223d68d641b3b6ddf9a298e7f33710cf3d3a9d1146b5a6150fbca60001b83805190602001206040516020018083815260200182815260200192505050604051602081830303815290604052805190602001209050601960f81b600160f81b6006548360405160200180857effffffffffffffffffffffffffffffffffffffffffffffffffffffffffffff19167effffffffffffffffffffffffffffffffffffffffffffffffffffffffffffff19168152600101847effffffffffffffffffffffffffffffffffffffffffffffffffffffffffffff19167effffffffffffffffffffffffffffffffffffffffffffffffffffffffffffff1916815260010183815260200182815260200194505050505060405160208183030381529060405280519060200120915050919050565b3073ffffffffffffffffffffffffffffffffffffffff163373ffffffffffffffffffffffffffffffffffffffff1614611929576040517f08c379a000000000000000000000000000000000000000000000000000000000815260040180806020018281038252602c815260200180615e66602c913960400191505060405180910390fd5b600073ffffffffffffffffffffffffffffffffffffffff168273ffffffffffffffffffffffffffffffffffffffff16141580156119935750600173ffffffffffffffffffffffffffffffffffffffff168273ffffffffffffffffffffffffffffffffffffffff1614155b611a05576040517f08c379a000000000000000000000000000000000000000000000000000000000815260040180806020018281038252601e8152602001807f496e76616c6964206f776e657220616464726573732070726f7669646564000081525060200191505060405180910390fd5b600073ffffffffffffffffffffffffffffffffffffffff16600260008473ffffffffffffffffffffffffffffffffffffffff1673ffffffffffffffffffffffffffffffffffffffff16815260200190815260200160002060009054906101000a900473ffffffffffffffffffffffffffffffffffffffff1673ffffffffffffffffffffffffffffffffffffffff1614611b06576040517f08c379a000000000000000000000000000000000000000000000000000000000815260040180806020018281038252601b8152602001807f4164647265737320697320616c726561647920616e206f776e6572000000000081525060200191505060405180910390fd5b60026000600173ffffffffffffffffffffffffffffffffffffffff1673ffffffffffffffffffffffffffffffffffffffff16815260200190815260200160002060009054906101000a900473ffffffffffffffffffffffffffffffffffffffff16600260008473ffffffffffffffffffffffffffffffffffffffff1673ffffffffffffffffffffffffffffffffffffffff16815260200190815260200160002060006101000a81548173ffffffffffffffffffffffffffffffffffffffff021916908373ffffffffffffffffffffffffffffffffffffffff1602179055508160026000600173ffffffffffffffffffffffffffffffffffffffff1673ffffffffffffffffffffffffffffffffffffffff16815260200190815260200160002060006101000a81548173ffffffffffffffffffffffffffffffffffffffff021916908373ffffffffffffffffffffffffffffffffffffffff1602179055506003600081548092919060010191905055507f9465fa0c962cc76958e6373a993326400c1c94f8be2fe3a952adfa7f60b2ea2682604051808273ffffffffffffffffffffffffffffffffffffffff1673ffffffffffffffffffffffffffffffffffffffff16815260200191505060405180910390a18060045414611ceb57611cea816125b9565b5b5050565b7f035aff83d86937d35b32e04f0ddc6ff469290eef2f1b692d8a815c89404d474960001b81565b600080611d6686868080601f016020809104026020016040519081016040528093929190818152602001838380828437600081840152601f19601f8201169050808301925050505050505061176e565b90506000848490501415611e0357600060076000838152602001908152602001600020541415611dfe576040517f08c379a00000000000000000000000000000000000000000000000000000000081526004018080602001828103825260118152602001807f48617368206e6f7420617070726f76656400000000000000000000000000000081525060200191505060405180910390fd5b611e99565b611e988187878080601f016020809104026020016040519081016040528093929190818152602001838380828437600081840152601f19601f8201169050808301925050505050505086868080601f016020809104026020016040519081016040528093929190818152602001838380828437600081840152601f19601f820116905080830192505050505050506000614913565b5b6320c13b0b60e01b915050949350505050565b6000600173ffffffffffffffffffffffffffffffffffffffff168273ffffffffffffffffffffffffffffffffffffffff1614158015611f775750600073ffffffffffffffffffffffffffffffffffffffff16600260008473ffffffffffffffffffffffffffffffffffffffff1673ffffffffffffffffffffffffffffffffffffffff16815260200190815260200160002060009054906101000a900473ffffffffffffffffffffffffffffffffffffffff1673ffffffffffffffffffffffffffffffffffffffff1614155b9050919050565b6000600173ffffffffffffffffffffffffffffffffffffffff163373ffffffffffffffffffffffffffffffffffffffff16141580156120495750600073ffffffffffffffffffffffffffffffffffffffff16600160003373ffffffffffffffffffffffffffffffffffffffff1673ffffffffffffffffffffffffffffffffffffffff16815260200190815260200160002060009054906101000a900473ffffffffffffffffffffffffffffffffffffffff1673ffffffffffffffffffffffffffffffffffffffff1614155b61209e576040517f08c379a0000000000000000000000000000000000000000000000000000000008152600401808060200182810382526030815260200180615e926030913960400191505060405180910390fd5b6120ab858585855a6151c9565b905080156120fb573373ffffffffffffffffffffffffffffffffffffffff167f6895c13664aa4f67288b25d7a21d7aaa34916e355fb9b6fae0a139a9085becb860405160405180910390a261213f565b3373ffffffffffffffffffffffffffffffffffffffff167facd2c8702804128fdb0db2bb49f6d127dd0181c13fd45dbfe16de0930e2bd37560405160405180910390a25b949350505050565b6000606061215786868686611f7e565b915060405160203d0181016040523d81523d6000602083013e8091505094509492505050565b60076020528060005260406000206000915090505481565b3073ffffffffffffffffffffffffffffffffffffffff163373ffffffffffffffffffffffffffffffffffffffff1614612219576040517f08c379a000000000000000000000000000000000000000000000000000000000815260040180806020018281038252602c815260200180615e66602c913960400191505060405180910390fd5b600073ffffffffffffffffffffffffffffffffffffffff168173ffffffffffffffffffffffffffffffffffffffff16141580156122835750600173ffffffffffffffffffffffffffffffffffffffff168173ffffffffffffffffffffffffffffffffffffffff1614155b6122f5576040517f08c379a000000000000000000000000000000000000000000000000000000000815260040180806020018281038252601f8152602001807f496e76616c6964206d6f64756c6520616464726573732070726f76696465640081525060200191505060405180910390fd5b600073ffffffffffffffffffffffffffffffffffffffff16600160008373ffffffffffffffffffffffffffffffffffffffff1673ffffffffffffffffffffffffffffffffffffffff16815260200190815260200160002060009054906101000a900473ffffffffffffffffffffffffffffffffffffffff1673ffffffffffffffffffffffffffffffffffffffff16146123f6576040517f08c379a000000000000000000000000000000000000000000000000000000000815260040180806020018281038252601d8152602001807f4d6f64756c652068617320616c7265616479206265656e20616464656400000081525060200191505060405180910390fd5b60016000600173ffffffffffffffffffffffffffffffffffffffff1673ffffffffffffffffffffffffffffffffffffffff16815260200190815260200160002060009054906101000a900473ffffffffffffffffffffffffffffffffffffffff16600160008373ffffffffffffffffffffffffffffffffffffffff1673ffffffffffffffffffffffffffffffffffffffff16815260200190815260200160002060006101000a81548173ffffffffffffffffffffffffffffffffffffffff021916908373ffffffffffffffffffffffffffffffffffffffff1602179055508060016000600173ffffffffffffffffffffffffffffffffffffffff1673ffffffffffffffffffffffffffffffffffffffff16815260200190815260200160002060006101000a81548173ffffffffffffffffffffffffffffffffffffffff021916908373ffffffffffffffffffffffffffffffffffffffff1602179055507fecdf3a3effea5783a3c4c2140e677577666428d44ed9d474a0b3a4c9943f844081604051808273ffffffffffffffffffffffffffffffffffffffff1673ffffffffffffffffffffffffffffffffffffffff16815260200191505060405180910390a150565b3073ffffffffffffffffffffffffffffffffffffffff163373ffffffffffffffffffffffffffffffffffffffff161461263d576040517f08c379a000000000000000000000000000000000000000000000000000000000815260040180806020018281038252602c815260200180615e66602c913960400191505060405180910390fd5b600354811115612698576040517f08c379a0000000000000000000000000000000000000000000000000000000008152600401808060200182810382526023815260200180615d356023913960400191505060405180910390fd5b60018110156126f2576040517f08c379a0000000000000000000000000000000000000000000000000000000008152600401808060200182810382526024815260200180615e0b6024913960400191505060405180910390fd5b806004819055507f610f7ff2b304ae8903c3de74c60c6ab1f7d6226b3f52c5161905bb5ad4039c936004546040518082815260200191505060405180910390a150565b60008060606127928f8f8f8f8080601f016020809104026020016040519081016040528093929190818152602001838380828437600081840152601f19601f820116905080830192505050505050508e8e8e8e8e8e6005546141a5565b905060056000815480929190600101919050555080805190602001209150612801828287878080601f016020809104026020016040519081016040528093929190818152602001838380828437600081840152601f19601f820116905080830192505050505050506001614913565b50885a101561285b576040517f08c379a000000000000000000000000000000000000000000000000000000000815260040180806020018281038252602a815260200180615f1b602a913960400191505060405180910390fd5b60005a90506128cc8f8f8f8f8080601f016020809104026020016040519081016040528093929190818152602001838380828437600081840152601f19601f820116905080830192505050505050508e60008f1480156128bb575060008d145b6128c5578e6128c7565b5a5b6151c9565b92506128e15a8261523b90919063ffffffff16565b905060008090506000891115612901576128fe828b8b8b8b61525b565b90505b831561294b577f442e715f626346e8c54381002da614f62bee8d27386535b2521ec8540898556e8382604051808381526020018281526020019250505060405180910390a161298b565b7f23428b18acfb3ea64b08dc0c1d296ea9c09702c09083ca5272e64d115b687d238382604051808381526020018281526020019250505060405180910390a15b5050509c9b505050505050505050505050565b6008602052816000526040600020602052806000526040600020600091509150505481565b3073ffffffffffffffffffffffffffffffffffffffff163373ffffffffffffffffffffffffffffffffffffffff1614612a47576040517f08c379a000000000000000000000000000000000000000000000000000000000815260040180806020018281038252602c815260200180615e66602c913960400191505060405180910390fd5b600073ffffffffffffffffffffffffffffffffffffffff168173ffffffffffffffffffffffffffffffffffffffff161415612acd576040517f08c379a0000000000000000000000000000000000000000000000000000000008152600401808060200182810382526024815260200180615ca16024913960400191505060405180910390fd5b806000806101000a81548173ffffffffffffffffffffffffffffffffffffffff021916908373ffffffffffffffffffffffffffffffffffffffff1602179055507f75e41bc35ff1bf14d81d1d2f649c0084a0f974f9289c803ec9898eeec4c8d0b881604051808273ffffffffffffffffffffffffffffffffffffffff1673ffffffffffffffffffffffffffffffffffffffff16815260200191505060405180910390a150565b3073ffffffffffffffffffffffffffffffffffffffff163373ffffffffffffffffffffffffffffffffffffffff1614612bf7576040517f08c379a000000000000000000000000000000000000000000000000000000000815260040180806020018281038252602c815260200180615e66602c913960400191505060405180910390fd5b6000612c4683838080601f016020809104026020016040519081016040528093929190818152602001838380828437600081840152601f19601f8201169050808301925050505050505061176e565b905060016007600083815260200190815260200160002081905550807fe7f4675038f4f6034dfcbbb24c4dc08e4ebf10eb9d257d3d02c0f38d122ac6e460405160405180910390a2505050565b600181565b600181565b606080600354604051908082528060200260200182016040528015612cd15781602001602082028038833980820191505090505b5090506000809050600060026000600173ffffffffffffffffffffffffffffffffffffffff1673ffffffffffffffffffffffffffffffffffffffff16815260200190815260200160002060009054906101000a900473ffffffffffffffffffffffffffffffffffffffff1690505b600173ffffffffffffffffffffffffffffffffffffffff168173ffffffffffffffffffffffffffffffffffffffff1614612e295780838381518110612d8057fe5b602002602001019073ffffffffffffffffffffffffffffffffffffffff16908173ffffffffffffffffffffffffffffffffffffffff1681525050600260008273ffffffffffffffffffffffffffffffffffffffff1673ffffffffffffffffffffffffffffffffffffffff16815260200190815260200160002060009054906101000a900473ffffffffffffffffffffffffffffffffffffffff1690508180600101925050612d3f565b82935050505090565b6040518060400160405280600b81526020017f476e6f736973205361666500000000000000000000000000000000000000000081525081565b60055481565b60606000809050600060016000600173ffffffffffffffffffffffffffffffffffffffff1673ffffffffffffffffffffffffffffffffffffffff16815260200190815260200160002060009054906101000a900473ffffffffffffffffffffffffffffffffffffffff1690505b600173ffffffffffffffffffffffffffffffffffffffff168173ffffffffffffffffffffffffffffffffffffffff1614612f8157600160008273ffffffffffffffffffffffffffffffffffffffff1673ffffffffffffffffffffffffffffffffffffffff16815260200190815260200160002060009054906101000a900473ffffffffffffffffffffffffffffffffffffffff1690508180600101925050612ede565b606082604051908082528060200260200182016040528015612fb25781602001602082028038833980820191505090505b5090506000925060016000600173ffffffffffffffffffffffffffffffffffffffff1673ffffffffffffffffffffffffffffffffffffffff16815260200190815260200160002060009054906101000a900473ffffffffffffffffffffffffffffffffffffffff1691505b600173ffffffffffffffffffffffffffffffffffffffff168273ffffffffffffffffffffffffffffffffffffffff1614613107578181848151811061305e57fe5b602002602001019073ffffffffffffffffffffffffffffffffffffffff16908173ffffffffffffffffffffffffffffffffffffffff1681525050600160008373ffffffffffffffffffffffffffffffffffffffff1673ffffffffffffffffffffffffffffffffffffffff16815260200190815260200160002060009054906101000a900473ffffffffffffffffffffffffffffffffffffffff169150828060010193505061301d565b80935050505090565b6000801b6006541461318a576040517f08c379a000000000000000000000000000000000000000000000000000000000815260040180806020018281038252601d8152602001807f446f6d61696e20536570617261746f7220616c7265616479207365742100000081525060200191505060405180910390fd5b7f035aff83d86937d35b32e04f0ddc6ff469290eef2f1b692d8a815c89404d474960001b30604051602001808381526020018273ffffffffffffffffffffffffffffffffffffffff1673ffffffffffffffffffffffffffffffffffffffff16815260200192505050604051602081830303815290604052805190602001206006819055506132598a8a80806020026020016040519081016040528093929190818152602001838360200280828437600081840152601f19601f8201169050808301925050505050505089615427565b6132a78787878080601f016020809104026020016040519081016040528093929190818152602001838380828437600081840152601f19601f82011690508083019250505050505050615880565b600073ffffffffffffffffffffffffffffffffffffffff168473ffffffffffffffffffffffffffffffffffffffff16146132e5576132e484615a9a565b5b60008211156132ff576132fd8260006001868561525b565b505b50505050505050505050565b7f60b3cbf8b4a223d68d641b3b6ddf9a298e7f33710cf3d3a9d1146b5a6150fbca60001b81565b60003073ffffffffffffffffffffffffffffffffffffffff163373ffffffffffffffffffffffffffffffffffffffff16146133b8576040517f08c379a000000000000000000000000000000000000000000000000000000000815260040180806020018281038252602c815260200180615e66602c913960400191505060405180910390fd5b60005a905061340e878787878080601f016020809104026020016040519081016040528093929190818152602001838380828437600081840152601f19601f82011690508083019250505050505050865a6151c9565b61341757600080fd5b60005a8203905080604051602001808281526020019150506040516020818303038152906040526040517f08c379a00000000000000000000000000000000000000000000000000000000081526004018080602001828103825283818151815260200191508051906020019080838360005b838110156134a4578082015181840152602081019050613489565b50505050905090810190601f1680156134d15780820380516001836020036101000a031916815260200191505b509250505060405180910390fd5b7fbb8310d486368db6bd6f849402fdd73ad53d316b5a4b2644ad6efe0f941286d860001b81565b600073ffffffffffffffffffffffffffffffffffffffff16600260003373ffffffffffffffffffffffffffffffffffffffff1673ffffffffffffffffffffffffffffffffffffffff16815260200190815260200160002060009054906101000a900473ffffffffffffffffffffffffffffffffffffffff1673ffffffffffffffffffffffffffffffffffffffff161415613608576040517f08c379a000000000000000000000000000000000000000000000000000000000815260040180806020018281038252601e8152602001807f4f6e6c79206f776e6572732063616e20617070726f766520612068617368000081525060200191505060405180910390fd5b6001600860003373ffffffffffffffffffffffffffffffffffffffff1673ffffffffffffffffffffffffffffffffffffffff1681526020019081526020016000206000838152602001908152602001600020819055503373ffffffffffffffffffffffffffffffffffffffff16817ff2a0eb156472d1440255b0d7c1e19cc07115d1051fe605b0dce69acfec884d9c60405160405180910390a350565b60006136b98b8b8b8b8b8b8b8b8b8b6141a5565b8051906020012090509a9950505050505050505050565b3073ffffffffffffffffffffffffffffffffffffffff163373ffffffffffffffffffffffffffffffffffffffff1614613754576040517f08c379a000000000000000000000000000000000000000000000000000000000815260040180806020018281038252602c815260200180615e66602c913960400191505060405180910390fd5b600073ffffffffffffffffffffffffffffffffffffffff168173ffffffffffffffffffffffffffffffffffffffff16141580156137be5750600173ffffffffffffffffffffffffffffffffffffffff168173ffffffffffffffffffffffffffffffffffffffff1614155b613830576040517f08c379a000000000000000000000000000000000000000000000000000000000815260040180806020018281038252601f8152602001807f496e76616c6964206d6f64756c6520616464726573732070726f76696465640081525060200191505060405180910390fd5b8073ffffffffffffffffffffffffffffffffffffffff16600160008473ffffffffffffffffffffffffffffffffffffffff1673ffffffffffffffffffffffffffffffffffffffff16815260200190815260200160002060009054906101000a900473ffffffffffffffffffffffffffffffffffffffff1673ffffffffffffffffffffffffffffffffffffffff1614613913576040517f08c379a0000000000000000000000000000000000000000000000000000000008152600401808060200182810382526028815260200180615d0d6028913960400191505060405180910390fd5b600160008273ffffffffffffffffffffffffffffffffffffffff1673ffffffffffffffffffffffffffffffffffffffff16815260200190815260200160002060009054906101000a900473ffffffffffffffffffffffffffffffffffffffff16600160008473ffffffffffffffffffffffffffffffffffffffff1673ffffffffffffffffffffffffffffffffffffffff16815260200190815260200160002060006101000a81548173ffffffffffffffffffffffffffffffffffffffff021916908373ffffffffffffffffffffffffffffffffffffffff1602179055506000600160008373ffffffffffffffffffffffffffffffffffffffff1673ffffffffffffffffffffffffffffffffffffffff16815260200190815260200160002060006101000a81548173ffffffffffffffffffffffffffffffffffffffff021916908373ffffffffffffffffffffffffffffffffffffffff1602179055507faab4fa2b463f581b2b32cb3b7e3b704b9ce37cc209b5fb4d77e593ace405427681604051808273ffffffffffffffffffffffffffffffffffffffff1673ffffffffffffffffffffffffffffffffffffffff16815260200191505060405180910390a15050565b3073ffffffffffffffffffffffffffffffffffffffff163373ffffffffffffffffffffffffffffffffffffffff1614613b5a576040517f08c379a000000000000000000000000000000000000000000000000000000000815260040180806020018281038252602c815260200180615e66602c913960400191505060405180910390fd5b600073ffffffffffffffffffffffffffffffffffffffff168173ffffffffffffffffffffffffffffffffffffffff1614158015613bc45750600173ffffffffffffffffffffffffffffffffffffffff168173ffffffffffffffffffffffffffffffffffffffff1614155b613c36576040517f08c379a000000000000000000000000000000000000000000000000000000000815260040180806020018281038252601e8152602001807f496e76616c6964206f776e657220616464726573732070726f7669646564000081525060200191505060405180910390fd5b600073ffffffffffffffffffffffffffffffffffffffff16600260008373ffffffffffffffffffffffffffffffffffffffff1673ffffffffffffffffffffffffffffffffffffffff16815260200190815260200160002060009054906101000a900473ffffffffffffffffffffffffffffffffffffffff1673ffffffffffffffffffffffffffffffffffffffff1614613d37576040517f08c379a000000000000000000000000000000000000000000000000000000000815260040180806020018281038252601b8152602001807f4164647265737320697320616c726561647920616e206f776e6572000000000081525060200191505060405180910390fd5b600073ffffffffffffffffffffffffffffffffffffffff168273ffffffffffffffffffffffffffffffffffffffff1614158015613da15750600173ffffffffffffffffffffffffffffffffffffffff168273ffffffffffffffffffffffffffffffffffffffff1614155b613e13576040517f08c379a000000000000000000000000000000000000000000000000000000000815260040180806020018281038252601e8152602001807f496e76616c6964206f776e657220616464726573732070726f7669646564000081525060200191505060405180910390fd5b8173ffffffffffffffffffffffffffffffffffffffff16600260008573ffffffffffffffffffffffffffffffffffffffff1673ffffffffffffffffffffffffffffffffffffffff16815260200190815260200160002060009054906101000a900473ffffffffffffffffffffffffffffffffffffffff1673ffffffffffffffffffffffffffffffffffffffff1614613ef6576040517f08c379a0000000000000000000000000000000000000000000000000000000008152600401808060200182810382526026815260200180615daf6026913960400191505060405180910390fd5b600260008373ffffffffffffffffffffffffffffffffffffffff1673ffffffffffffffffffffffffffffffffffffffff16815260200190815260200160002060009054906101000a900473ffffffffffffffffffffffffffffffffffffffff16600260008373ffffffffffffffffffffffffffffffffffffffff1673ffffffffffffffffffffffffffffffffffffffff16815260200190815260200160002060006101000a81548173ffffffffffffffffffffffffffffffffffffffff021916908373ffffffffffffffffffffffffffffffffffffffff16021790555080600260008573ffffffffffffffffffffffffffffffffffffffff1673ffffffffffffffffffffffffffffffffffffffff16815260200190815260200160002060006101000a81548173ffffffffffffffffffffffffffffffffffffffff021916908373ffffffffffffffffffffffffffffffffffffffff1602179055506000600260008473ffffffffffffffffffffffffffffffffffffffff1673ffffffffffffffffffffffffffffffffffffffff16815260200190815260200160002060006101000a81548173ffffffffffffffffffffffffffffffffffffffff021916908373ffffffffffffffffffffffffffffffffffffffff1602179055507ff8d49fc529812e9a7c5c50e69c20f0dccc0db8fa95c98bc58cc9a4f1c1299eaf82604051808273ffffffffffffffffffffffffffffffffffffffff1673ffffffffffffffffffffffffffffffffffffffff16815260200191505060405180910390a17f9465fa0c962cc76958e6373a993326400c1c94f8be2fe3a952adfa7f60b2ea2681604051808273ffffffffffffffffffffffffffffffffffffffff1673ffffffffffffffffffffffffffffffffffffffff16815260200191505060405180910390a1505050565b6000600454905090565b606060007fbb8310d486368db6bd6f849402fdd73ad53d316b5a4b2644ad6efe0f941286d860001b8c8c8c805190602001208c8c8c8c8c8c8c604051602001808c81526020018b73ffffffffffffffffffffffffffffffffffffffff1673ffffffffffffffffffffffffffffffffffffffff1681526020018a815260200189815260200188600181111561423557fe5b60ff1681526020018781526020018681526020018581526020018473ffffffffffffffffffffffffffffffffffffffff1673ffffffffffffffffffffffffffffffffffffffff1681526020018373ffffffffffffffffffffffffffffffffffffffff1673ffffffffffffffffffffffffffffffffffffffff1681526020018281526020019b505050505050505050505050604051602081830303815290604052805190602001209050601960f81b600160f81b6006548360405160200180857effffffffffffffffffffffffffffffffffffffffffffffffffffffffffffff19167effffffffffffffffffffffffffffffffffffffffffffffffffffffffffffff19168152600101847effffffffffffffffffffffffffffffffffffffffffffffffffffffffffffff19167effffffffffffffffffffffffffffffffffffffffffffffffffffffffffffff191681526001018381526020018281526020019450505050506040516020818303038152906040529150509a9950505050505050505050565b3073ffffffffffffffffffffffffffffffffffffffff163373ffffffffffffffffffffffffffffffffffffffff161461443d576040517f08c379a000000000000000000000000000000000000000000000000000000000815260040180806020018281038252602c815260200180615e66602c913960400191505060405180910390fd5b61444681615a9a565b50565b60065481565b3073ffffffffffffffffffffffffffffffffffffffff163373ffffffffffffffffffffffffffffffffffffffff16146144d3576040517f08c379a000000000000000000000000000000000000000000000000000000000815260040180806020018281038252602c815260200180615e66602c913960400191505060405180910390fd5b806001600354031015614531576040517f08c379a0000000000000000000000000000000000000000000000000000000008152600401808060200182810382526035815260200180615d586035913960400191505060405180910390fd5b600073ffffffffffffffffffffffffffffffffffffffff168273ffffffffffffffffffffffffffffffffffffffff161415801561459b5750600173ffffffffffffffffffffffffffffffffffffffff168273ffffffffffffffffffffffffffffffffffffffff1614155b61460d576040517f08c379a000000000000000000000000000000000000000000000000000000000815260040180806020018281038252601e8152602001807f496e76616c6964206f776e657220616464726573732070726f7669646564000081525060200191505060405180910390fd5b8173ffffffffffffffffffffffffffffffffffffffff16600260008573ffffffffffffffffffffffffffffffffffffffff1673ffffffffffffffffffffffffffffffffffffffff16815260200190815260200160002060009054906101000a900473ffffffffffffffffffffffffffffffffffffffff1673ffffffffffffffffffffffffffffffffffffffff16146146f0576040517f08c379a0000000000000000000000000000000000000000000000000000000008152600401808060200182810382526026815260200180615daf6026913960400191505060405180910390fd5b600260008373ffffffffffffffffffffffffffffffffffffffff1673ffffffffffffffffffffffffffffffffffffffff16815260200190815260200160002060009054906101000a900473ffffffffffffffffffffffffffffffffffffffff16600260008573ffffffffffffffffffffffffffffffffffffffff1673ffffffffffffffffffffffffffffffffffffffff16815260200190815260200160002060006101000a81548173ffffffffffffffffffffffffffffffffffffffff021916908373ffffffffffffffffffffffffffffffffffffffff1602179055506000600260008473ffffffffffffffffffffffffffffffffffffffff1673ffffffffffffffffffffffffffffffffffffffff16815260200190815260200160002060006101000a81548173ffffffffffffffffffffffffffffffffffffffff021916908373ffffffffffffffffffffffffffffffffffffffff160217905550600360008154809291906001900391905055507ff8d49fc529812e9a7c5c50e69c20f0dccc0db8fa95c98bc58cc9a4f1c1299eaf82604051808273ffffffffffffffffffffffffffffffffffffffff1673ffffffffffffffffffffffffffffffffffffffff16815260200191505060405180910390a180600454146148d5576148d4816125b9565b5b505050565b6040518060400160405280600581526020017f312e312e3000000000000000000000000000000000000000000000000000000081525081565b6149296041600454615ac990919063ffffffff16565b8251101561499f576040517f08c379a00000000000000000000000000000000000000000000000000000000081526004018080602001828103825260198152602001807f5369676e617475726573206461746120746f6f2073686f72740000000000000081525060200191505060405180910390fd5b600080905060008060008060008090505b6004548110156151bd576149c48882615b03565b80945081955082965050505060008460ff161415614d5b578260001c94506149f86041600454615ac990919063ffffffff16565b8260001c1015614a53576040517f08c379a0000000000000000000000000000000000000000000000000000000008152600401808060200182810382526037815260200180615e2f6037913960400191505060405180910390fd5b8751614a6c60208460001c615b3290919063ffffffff16565b1115614ac3576040517f08c379a0000000000000000000000000000000000000000000000000000000008152600401808060200182810382526037815260200180615ec26037913960400191505060405180910390fd5b60006020838a01015190508851614af982614aeb60208760001c615b3290919063ffffffff16565b615b3290919063ffffffff16565b1115614b50576040517f08c379a0000000000000000000000000000000000000000000000000000000008152600401808060200182810382526036815260200180615dd56036913960400191505060405180910390fd5b60606020848b010190506320c13b0b60e01b7bffffffffffffffffffffffffffffffffffffffffffffffffffffffff19168773ffffffffffffffffffffffffffffffffffffffff166320c13b0b8d846040518363ffffffff1660e01b8152600401808060200180602001838103835285818151815260200191508051906020019080838360005b83811015614bf2578082015181840152602081019050614bd7565b50505050905090810190601f168015614c1f5780820380516001836020036101000a031916815260200191505b50838103825284818151815260200191508051906020019080838360005b83811015614c58578082015181840152602081019050614c3d565b50505050905090810190601f168015614c855780820380516001836020036101000a031916815260200191505b5094505050505060206040518083038186803b158015614ca457600080fd5b505afa158015614cb8573d6000803e3d6000fd5b505050506040513d6020811015614cce57600080fd5b81019080805190602001909291905050507bffffffffffffffffffffffffffffffffffffffffffffffffffffffff191614614d54576040517f08c379a0000000000000000000000000000000000000000000000000000000008152600401808060200182810382526023815260200180615cea6023913960400191505060405180910390fd5b505061503b565b60018460ff161415614f04578260001c94508473ffffffffffffffffffffffffffffffffffffffff163373ffffffffffffffffffffffffffffffffffffffff161480614df857506000600860008773ffffffffffffffffffffffffffffffffffffffff1673ffffffffffffffffffffffffffffffffffffffff16815260200190815260200160002060008c81526020019081526020016000205414155b614e6a576040517f08c379a000000000000000000000000000000000000000000000000000000000815260040180806020018281038252601a8152602001807f4861736820686173206e6f74206265656e20617070726f76656400000000000081525060200191505060405180910390fd5b868015614ea357508473ffffffffffffffffffffffffffffffffffffffff163373ffffffffffffffffffffffffffffffffffffffff1614155b15614eff576000600860008773ffffffffffffffffffffffffffffffffffffffff1673ffffffffffffffffffffffffffffffffffffffff16815260200190815260200160002060008c8152602001908152602001600020819055505b61503a565b601e8460ff161115614fcf5760018a60405160200180807f19457468657265756d205369676e6564204d6573736167653a0a333200000000815250601c018281526020019150506040516020818303038152906040528051906020012060048603858560405160008152602001604052604051808581526020018460ff1660ff1681526020018381526020018281526020019450505050506020604051602081039080840390855afa158015614fbe573d6000803e3d6000fd5b505050602060405103519450615039565b60018a85858560405160008152602001604052604051808581526020018460ff1660ff1681526020018381526020018281526020019450505050506020604051602081039080840390855afa15801561502c573d6000803e3d6000fd5b5050506020604051035194505b5b5b8573ffffffffffffffffffffffffffffffffffffffff168573ffffffffffffffffffffffffffffffffffffffff161180156151025750600073ffffffffffffffffffffffffffffffffffffffff16600260008773ffffffffffffffffffffffffffffffffffffffff1673ffffffffffffffffffffffffffffffffffffffff16815260200190815260200160002060009054906101000a900473ffffffffffffffffffffffffffffffffffffffff1673ffffffffffffffffffffffffffffffffffffffff1614155b801561513b5750600173ffffffffffffffffffffffffffffffffffffffff168573ffffffffffffffffffffffffffffffffffffffff1614155b6151ad576040517f08c379a00000000000000000000000000000000000000000000000000000000081526004018080602001828103825260168152602001807f496e76616c6964206f776e65722070726f76696465640000000000000000000081525060200191505060405180910390fd5b84955080806001019150506149b0565b50505050505050505050565b60008060018111156151d757fe5b8360018111156151e357fe5b14156151fc576151f586868685615b51565b9050615232565b60018081111561520857fe5b83600181111561521457fe5b141561522c57615225868584615b6a565b9050615231565b600090505b5b95945050505050565b60008282111561524a57600080fd5b600082840390508091505092915050565b600080600073ffffffffffffffffffffffffffffffffffffffff168373ffffffffffffffffffffffffffffffffffffffff1614615298578261529a565b325b9050600073ffffffffffffffffffffffffffffffffffffffff168473ffffffffffffffffffffffffffffffffffffffff161415615395576153043a86106152e1573a6152e3565b855b6152f6888a615b3290919063ffffffff16565b615ac990919063ffffffff16565b91508073ffffffffffffffffffffffffffffffffffffffff166108fc839081150290604051600060405180830381858888f19350505050615390576040517f08c379a0000000000000000000000000000000000000000000000000000000008152600401808060200182810382526022815260200180615ef96022913960400191505060405180910390fd5b61541d565b6153ba856153ac888a615b3290919063ffffffff16565b615ac990919063ffffffff16565b91506153c7848284615b81565b61541c576040517f08c379a0000000000000000000000000000000000000000000000000000000008152600401808060200182810382526022815260200180615d8d6022913960400191505060405180910390fd5b5b5095945050505050565b60006004541461549f576040517f08c379a000000000000000000000000000000000000000000000000000000000815260040180806020018281038252601e8152602001807f4f776e657273206861766520616c7265616479206265656e207365747570000081525060200191505060405180910390fd5b81518111156154f9576040517f08c379a0000000000000000000000000000000000000000000000000000000008152600401808060200182810382526023815260200180615d356023913960400191505060405180910390fd5b6001811015615553576040517f08c379a0000000000000000000000000000000000000000000000000000000008152600401808060200182810382526024815260200180615e0b6024913960400191505060405180910390fd5b60006001905060008090505b83518110156157ec57600084828151811061557657fe5b60200260200101519050600073ffffffffffffffffffffffffffffffffffffffff168173ffffffffffffffffffffffffffffffffffffffff16141580156155ea5750600173ffffffffffffffffffffffffffffffffffffffff168173ffffffffffffffffffffffffffffffffffffffff1614155b61565c576040517f08c379a000000000000000000000000000000000000000000000000000000000815260040180806020018281038252601e8152602001807f496e76616c6964206f776e657220616464726573732070726f7669646564000081525060200191505060405180910390fd5b600073ffffffffffffffffffffffffffffffffffffffff16600260008373ffffffffffffffffffffffffffffffffffffffff1673ffffffffffffffffffffffffffffffffffffffff16815260200190815260200160002060009054906101000a900473ffffffffffffffffffffffffffffffffffffffff1673ffffffffffffffffffffffffffffffffffffffff161461575d576040517f08c379a00000000000000000000000000000000000000000000000000000000081526004018080602001828103825260208152602001807f4475706c6963617465206f776e657220616464726573732070726f766964656481525060200191505060405180910390fd5b80600260008573ffffffffffffffffffffffffffffffffffffffff1673ffffffffffffffffffffffffffffffffffffffff16815260200190815260200160002060006101000a81548173ffffffffffffffffffffffffffffffffffffffff021916908373ffffffffffffffffffffffffffffffffffffffff16021790555080925050808060010191505061555f565b506001600260008373ffffffffffffffffffffffffffffffffffffffff1673ffffffffffffffffffffffffffffffffffffffff16815260200190815260200160002060006101000a81548173ffffffffffffffffffffffffffffffffffffffff021916908373ffffffffffffffffffffffffffffffffffffffff160217905550825160038190555081600481905550505050565b600073ffffffffffffffffffffffffffffffffffffffff1660016000600173ffffffffffffffffffffffffffffffffffffffff1673ffffffffffffffffffffffffffffffffffffffff16815260200190815260200160002060009054906101000a900473ffffffffffffffffffffffffffffffffffffffff1673ffffffffffffffffffffffffffffffffffffffff1614615965576040517f08c379a0000000000000000000000000000000000000000000000000000000008152600401808060200182810382526025815260200180615cc56025913960400191505060405180910390fd5b6001806000600173ffffffffffffffffffffffffffffffffffffffff1673ffffffffffffffffffffffffffffffffffffffff16815260200190815260200160002060006101000a81548173ffffffffffffffffffffffffffffffffffffffff021916908373ffffffffffffffffffffffffffffffffffffffff160217905550600073ffffffffffffffffffffffffffffffffffffffff168273ffffffffffffffffffffffffffffffffffffffff1614615a9657615a2382825a615b6a565b615a95576040517f08c379a000000000000000000000000000000000000000000000000000000000815260040180806020018281038252601f8152602001807f436f756c64206e6f742066696e69736820696e697469616c697a6174696f6e0081525060200191505060405180910390fd5b5b5050565b60007f6c9a6c4a39284e37ed1cf53d337577d14212a4870fb976a4366c693b939918d560001b90508181555050565b600080831415615adc5760009050615afd565b6000828402905082848281615aed57fe5b0414615af857600080fd5b809150505b92915050565b60008060008360410260208101860151925060408101860151915060ff60418201870151169350509250925092565b600080828401905083811015615b4757600080fd5b8091505092915050565b6000806000845160208601878987f19050949350505050565b60008060008451602086018786f490509392505050565b600060608383604051602401808373ffffffffffffffffffffffffffffffffffffffff1673ffffffffffffffffffffffffffffffffffffffff168152602001828152602001925050506040516020818303038152906040527fa9059cbb000000000000000000000000000000000000000000000000000000007bffffffffffffffffffffffffffffffffffffffffffffffffffffffff19166020820180517bffffffffffffffffffffffffffffffffffffffffffffffffffffffff838183161783525050505090506000808251602084016000896127105a03f16040513d81016040523d6000823e3d60008114615c835760208114615c8b5760009450615c95565b829450615c95565b8151158315171594505b50505050939250505056fe496e76616c6964206d617374657220636f707920616464726573732070726f76696465644d6f64756c6573206861766520616c7265616479206265656e20696e697469616c697a6564496e76616c696420636f6e7472616374207369676e61747572652070726f7669646564496e76616c696420707265764d6f64756c652c206d6f64756c6520706169722070726f76696465645468726573686f6c642063616e6e6f7420657863656564206f776e657220636f756e744e6577206f776e657220636f756e74206e6565647320746f206265206c6172676572207468616e206e6577207468726573686f6c64436f756c64206e6f74207061792067617320636f737473207769746820746f6b656e496e76616c696420707265764f776e65722c206f776e657220706169722070726f7669646564496e76616c696420636f6e7472616374207369676e6174757265206c6f636174696f6e3a2064617461206e6f7420636f6d706c6574655468726573686f6c64206e6565647320746f2062652067726561746572207468616e2030496e76616c696420636f6e7472616374207369676e6174757265206c6f636174696f6e3a20696e736964652073746174696320706172744d6574686f642063616e206f6e6c792062652063616c6c65642066726f6d207468697320636f6e74726163744d6574686f642063616e206f6e6c792062652063616c6c65642066726f6d20616e20656e61626c6564206d6f64756c65496e76616c696420636f6e7472616374207369676e6174757265206c6f636174696f6e3a206c656e677468206e6f742070726573656e74436f756c64206e6f74207061792067617320636f73747320776974682065746865724e6f7420656e6f7567682067617320746f20657865637574652073616665207472616e73616374696f6ea265627a7a723158203afd566adb0a37303faef2b2bbbb914dd8a1c4df7c6423efe3b3dabe8827289964736f6c634300050b0032",
  "source": "pragma solidity >=0.5.0 <0.7.0;\nimport \"./base/ModuleManager.sol\";\nimport \"./base/OwnerManager.sol\";\nimport \"./base/FallbackManager.sol\";\nimport \"./common/MasterCopy.sol\";\nimport \"./common/SignatureDecoder.sol\";\nimport \"./common/SecuredTokenTransfer.sol\";\nimport \"./interfaces/ISignatureValidator.sol\";\nimport \"./external/SafeMath.sol\";\n\n/// @title Gnosis Safe - A multisignature wallet with support for confirmations using signed messages based on ERC191.\n/// @author Stefan George - <stefan@gnosis.io>\n/// @author Richard Meissner - <richard@gnosis.io>\n/// @author Ricardo Guilherme Schmidt - (Status Research & Development GmbH) - Gas Token Payment\ncontract GnosisSafe\n    is MasterCopy, ModuleManager, OwnerManager, SignatureDecoder, SecuredTokenTransfer, ISignatureValidatorConstants, FallbackManager {\n\n    using SafeMath for uint256;\n\n    string public constant NAME = \"Gnosis Safe\";\n    string public constant VERSION = \"1.1.0\";\n\n    //keccak256(\n    //    \"EIP712Domain(address verifyingContract)\"\n    //);\n    bytes32 public constant DOMAIN_SEPARATOR_TYPEHASH = 0x035aff83d86937d35b32e04f0ddc6ff469290eef2f1b692d8a815c89404d4749;\n\n    //keccak256(\n    //    \"SafeTx(address to,uint256 value,bytes data,uint8 operation,uint256 safeTxGas,uint256 baseGas,uint256 gasPrice,address gasToken,address refundReceiver,uint256 nonce)\"\n    //);\n    bytes32 public constant SAFE_TX_TYPEHASH = 0xbb8310d486368db6bd6f849402fdd73ad53d316b5a4b2644ad6efe0f941286d8;\n\n    //keccak256(\n    //    \"SafeMessage(bytes message)\"\n    //);\n    bytes32 public constant SAFE_MSG_TYPEHASH = 0x60b3cbf8b4a223d68d641b3b6ddf9a298e7f33710cf3d3a9d1146b5a6150fbca;\n\n    event ApproveHash(\n        bytes32 indexed approvedHash,\n        address indexed owner\n    );\n    event SignMsg(\n        bytes32 indexed msgHash\n    );\n    event ExecutionFailure(\n        bytes32 txHash, uint256 payment\n    );\n    event ExecutionSuccess(\n        bytes32 txHash, uint256 payment\n    );\n\n    uint256 public nonce;\n    bytes32 public domainSeparator;\n    // Mapping to keep track of all message hashes that have been approve by ALL REQUIRED owners\n    mapping(bytes32 => uint256) public signedMessages;\n    // Mapping to keep track of all hashes (message or transaction) that have been approve by ANY owners\n    mapping(address => mapping(bytes32 => uint256)) public approvedHashes;\n\n    /// @dev Setup function sets initial storage of contract.\n    /// @param _owners List of Safe owners.\n    /// @param _threshold Number of required confirmations for a Safe transaction.\n    /// @param to Contract address for optional delegate call.\n    /// @param data Data payload for optional delegate call.\n    /// @param fallbackHandler Handler for fallback calls to this contract\n    /// @param paymentToken Token that should be used for the payment (0 is ETH)\n    /// @param payment Value that should be paid\n    /// @param paymentReceiver Adddress that should receive the payment (or 0 if tx.origin)\n    function setup(\n        address[] calldata _owners,\n        uint256 _threshold,\n        address to,\n        bytes calldata data,\n        address fallbackHandler,\n        address paymentToken,\n        uint256 payment,\n        address payable paymentReceiver\n    )\n        external\n    {\n        require(domainSeparator == 0, \"Domain Separator already set!\");\n        domainSeparator = keccak256(abi.encode(DOMAIN_SEPARATOR_TYPEHASH, this));\n        setupOwners(_owners, _threshold);\n        // As setupOwners can only be called if the contract has not been initialized we don't need a check for setupModules\n        setupModules(to, data);\n        if (fallbackHandler != address(0)) internalSetFallbackHandler(fallbackHandler);\n\n        if (payment > 0) {\n            // To avoid running into issues with EIP-170 we reuse the handlePayment function (to avoid adjusting code of that has been verified we do not adjust the method itself)\n            // baseGas = 0, gasPrice = 1 and gas = payment => amount = (payment + 0) * 1 = payment\n            handlePayment(payment, 0, 1, paymentToken, paymentReceiver);\n        }\n    }\n\n    /// @dev Allows to execute a Safe transaction confirmed by required number of owners and then pays the account that submitted the transaction.\n    ///      Note: The fees are always transfered, even if the user transaction fails.\n    /// @param to Destination address of Safe transaction.\n    /// @param value Ether value of Safe transaction.\n    /// @param data Data payload of Safe transaction.\n    /// @param operation Operation type of Safe transaction.\n    /// @param safeTxGas Gas that should be used for the Safe transaction.\n    /// @param baseGas Gas costs for that are indipendent of the transaction execution(e.g. base transaction fee, signature check, payment of the refund)\n    /// @param gasPrice Gas price that should be used for the payment calculation.\n    /// @param gasToken Token address (or 0 if ETH) that is used for the payment.\n    /// @param refundReceiver Address of receiver of gas payment (or 0 if tx.origin).\n    /// @param signatures Packed signature data ({bytes32 r}{bytes32 s}{uint8 v})\n    function execTransaction(\n        address to,\n        uint256 value,\n        bytes calldata data,\n        Enum.Operation operation,\n        uint256 safeTxGas,\n        uint256 baseGas,\n        uint256 gasPrice,\n        address gasToken,\n        address payable refundReceiver,\n        bytes calldata signatures\n    )\n        external\n        returns (bool success)\n    {\n        bytes32 txHash;\n        // Use scope here to limit variable lifetime and prevent `stack too deep` errors\n        {\n            bytes memory txHashData = encodeTransactionData(\n                to, value, data, operation, // Transaction info\n                safeTxGas, baseGas, gasPrice, gasToken, refundReceiver, // Payment info\n                nonce\n            );\n            // Increase nonce and execute transaction.\n            nonce++;\n            txHash = keccak256(txHashData);\n            checkSignatures(txHash, txHashData, signatures, true);\n        }\n        require(gasleft() >= safeTxGas, \"Not enough gas to execute safe transaction\");\n        // Use scope here to limit variable lifetime and prevent `stack too deep` errors\n        {\n            uint256 gasUsed = gasleft();\n            // If no safeTxGas has been set and the gasPrice is 0 we assume that all available gas can be used\n            success = execute(to, value, data, operation, safeTxGas == 0 && gasPrice == 0 ? gasleft() : safeTxGas);\n            gasUsed = gasUsed.sub(gasleft());\n            // We transfer the calculated tx costs to the tx.origin to avoid sending it to intermediate contracts that have made calls\n            uint256 payment = 0;\n            if (gasPrice > 0) {\n                payment = handlePayment(gasUsed, baseGas, gasPrice, gasToken, refundReceiver);\n            }\n            if (success) emit ExecutionSuccess(txHash, payment);\n            else emit ExecutionFailure(txHash, payment);\n        }\n    }\n\n    function handlePayment(\n        uint256 gasUsed,\n        uint256 baseGas,\n        uint256 gasPrice,\n        address gasToken,\n        address payable refundReceiver\n    )\n        private\n        returns (uint256 payment)\n    {\n        // solium-disable-next-line security/no-tx-origin\n        address payable receiver = refundReceiver == address(0) ? tx.origin : refundReceiver;\n        if (gasToken == address(0)) {\n            // For ETH we will only adjust the gas price to not be higher than the actual used gas price\n            payment = gasUsed.add(baseGas).mul(gasPrice < tx.gasprice ? gasPrice : tx.gasprice);\n            // solium-disable-next-line security/no-send\n            require(receiver.send(payment), \"Could not pay gas costs with ether\");\n        } else {\n            payment = gasUsed.add(baseGas).mul(gasPrice);\n            require(transferToken(gasToken, receiver, payment), \"Could not pay gas costs with token\");\n        }\n    }\n\n    /**\n    * @dev Checks whether the signature provided is valid for the provided data, hash. Will revert otherwise.\n    * @param dataHash Hash of the data (could be either a message hash or transaction hash)\n    * @param data That should be signed (this is passed to an external validator contract)\n    * @param signatures Signature data that should be verified. Can be ECDSA signature, contract signature (EIP-1271) or approved hash.\n    * @param consumeHash Indicates that in case of an approved hash the storage can be freed to save gas\n    */\n    function checkSignatures(bytes32 dataHash, bytes memory data, bytes memory signatures, bool consumeHash)\n        internal\n    {\n        // Check that the provided signature data is not too short\n        require(signatures.length >= threshold.mul(65), \"Signatures data too short\");\n        // There cannot be an owner with address 0.\n        address lastOwner = address(0);\n        address currentOwner;\n        uint8 v;\n        bytes32 r;\n        bytes32 s;\n        uint256 i;\n        for (i = 0; i < threshold; i++) {\n            (v, r, s) = signatureSplit(signatures, i);\n            // If v is 0 then it is a contract signature\n            if (v == 0) {\n                // When handling contract signatures the address of the contract is encoded into r\n                currentOwner = address(uint256(r));\n\n                // Check that signature data pointer (s) is not pointing inside the static part of the signatures bytes\n                // This check is not completely accurate, since it is possible that more signatures than the threshold are send.\n                // Here we only check that the pointer is not pointing inside the part that is being processed\n                require(uint256(s) >= threshold.mul(65), \"Invalid contract signature location: inside static part\");\n\n                // Check that signature data pointer (s) is in bounds (points to the length of data -> 32 bytes)\n                require(uint256(s).add(32) <= signatures.length, \"Invalid contract signature location: length not present\");\n\n                // Check if the contract signature is in bounds: start of data is s + 32 and end is start + signature length\n                uint256 contractSignatureLen;\n                // solium-disable-next-line security/no-inline-assembly\n                assembly {\n                    contractSignatureLen := mload(add(add(signatures, s), 0x20))\n                }\n                require(uint256(s).add(32).add(contractSignatureLen) <= signatures.length, \"Invalid contract signature location: data not complete\");\n\n                // Check signature\n                bytes memory contractSignature;\n                // solium-disable-next-line security/no-inline-assembly\n                assembly {\n                    // The signature data for contract signatures is appended to the concatenated signatures and the offset is stored in s\n                    contractSignature := add(add(signatures, s), 0x20)\n                }\n                require(ISignatureValidator(currentOwner).isValidSignature(data, contractSignature) == EIP1271_MAGIC_VALUE, \"Invalid contract signature provided\");\n            // If v is 1 then it is an approved hash\n            } else if (v == 1) {\n                // When handling approved hashes the address of the approver is encoded into r\n                currentOwner = address(uint256(r));\n                // Hashes are automatically approved by the sender of the message or when they have been pre-approved via a separate transaction\n                require(msg.sender == currentOwner || approvedHashes[currentOwner][dataHash] != 0, \"Hash has not been approved\");\n                // Hash has been marked for consumption. If this hash was pre-approved free storage\n                if (consumeHash && msg.sender != currentOwner) {\n                    approvedHashes[currentOwner][dataHash] = 0;\n                }\n            } else if (v > 30) {\n                // To support eth_sign and similar we adjust v and hash the messageHash with the Ethereum message prefix before applying ecrecover\n                currentOwner = ecrecover(keccak256(abi.encodePacked(\"\\x19Ethereum Signed Message:\\n32\", dataHash)), v - 4, r, s);\n            } else {\n                // Use ecrecover with the messageHash for EOA signatures\n                currentOwner = ecrecover(dataHash, v, r, s);\n            }\n            require (\n                currentOwner > lastOwner && owners[currentOwner] != address(0) && currentOwner != SENTINEL_OWNERS,\n                \"Invalid owner provided\"\n            );\n            lastOwner = currentOwner;\n        }\n    }\n\n    /// @dev Allows to estimate a Safe transaction.\n    ///      This method is only meant for estimation purpose, therefore two different protection mechanism against execution in a transaction have been made:\n    ///      1.) The method can only be called from the safe itself\n    ///      2.) The response is returned with a revert\n    ///      When estimating set `from` to the address of the safe.\n    ///      Since the `estimateGas` function includes refunds, call this method to get an estimated of the costs that are deducted from the safe with `execTransaction`\n    /// @param to Destination address of Safe transaction.\n    /// @param value Ether value of Safe transaction.\n    /// @param data Data payload of Safe transaction.\n    /// @param operation Operation type of Safe transaction.\n    /// @return Estimate without refunds and overhead fees (base transaction and payload data gas costs).\n    function requiredTxGas(address to, uint256 value, bytes calldata data, Enum.Operation operation)\n        external\n        authorized\n        returns (uint256)\n    {\n        uint256 startGas = gasleft();\n        // We don't provide an error message here, as we use it to return the estimate\n        // solium-disable-next-line error-reason\n        require(execute(to, value, data, operation, gasleft()));\n        uint256 requiredGas = startGas - gasleft();\n        // Convert response to string and return via error message\n        revert(string(abi.encodePacked(requiredGas)));\n    }\n\n    /**\n    * @dev Marks a hash as approved. This can be used to validate a hash that is used by a signature.\n    * @param hashToApprove The hash that should be marked as approved for signatures that are verified by this contract.\n    */\n    function approveHash(bytes32 hashToApprove)\n        external\n    {\n        require(owners[msg.sender] != address(0), \"Only owners can approve a hash\");\n        approvedHashes[msg.sender][hashToApprove] = 1;\n        emit ApproveHash(hashToApprove, msg.sender);\n    }\n\n    /**\n    * @dev Marks a message as signed\n    * @param _data Arbitrary length data that should be marked as signed on the behalf of address(this)\n    */\n    function signMessage(bytes calldata _data)\n        external\n        authorized\n    {\n        bytes32 msgHash = getMessageHash(_data);\n        signedMessages[msgHash] = 1;\n        emit SignMsg(msgHash);\n    }\n\n    /**\n    * Implementation of ISignatureValidator (see `interfaces/ISignatureValidator.sol`)\n    * @dev Should return whether the signature provided is valid for the provided data.\n    *       The save does not implement the interface since `checkSignatures` is not a view method.\n    *       The method will not perform any state changes (see parameters of `checkSignatures`)\n    * @param _data Arbitrary length data signed on the behalf of address(this)\n    * @param _signature Signature byte array associated with _data\n    * @return a bool upon valid or invalid signature with corresponding _data\n    */\n    function isValidSignature(bytes calldata _data, bytes calldata _signature)\n        external\n        returns (bytes4)\n    {\n        bytes32 messageHash = getMessageHash(_data);\n        if (_signature.length == 0) {\n            require(signedMessages[messageHash] != 0, \"Hash not approved\");\n        } else {\n            // consumeHash needs to be false, as the state should not be changed\n            checkSignatures(messageHash, _data, _signature, false);\n        }\n        return EIP1271_MAGIC_VALUE;\n    }\n\n    /// @dev Returns hash of a message that can be signed by owners.\n    /// @param message Message that should be hashed\n    /// @return Message hash.\n    function getMessageHash(\n        bytes memory message\n    )\n        public\n        view\n        returns (bytes32)\n    {\n        bytes32 safeMessageHash = keccak256(\n            abi.encode(SAFE_MSG_TYPEHASH, keccak256(message))\n        );\n        return keccak256(\n            abi.encodePacked(byte(0x19), byte(0x01), domainSeparator, safeMessageHash)\n        );\n    }\n\n    /// @dev Returns the bytes that are hashed to be signed by owners.\n    /// @param to Destination address.\n    /// @param value Ether value.\n    /// @param data Data payload.\n    /// @param operation Operation type.\n    /// @param safeTxGas Fas that should be used for the safe transaction.\n    /// @param baseGas Gas costs for data used to trigger the safe transaction.\n    /// @param gasPrice Maximum gas price that should be used for this transaction.\n    /// @param gasToken Token address (or 0 if ETH) that is used for the payment.\n    /// @param refundReceiver Address of receiver of gas payment (or 0 if tx.origin).\n    /// @param _nonce Transaction nonce.\n    /// @return Transaction hash bytes.\n    function encodeTransactionData(\n        address to,\n        uint256 value,\n        bytes memory data,\n        Enum.Operation operation,\n        uint256 safeTxGas,\n        uint256 baseGas,\n        uint256 gasPrice,\n        address gasToken,\n        address refundReceiver,\n        uint256 _nonce\n    )\n        public\n        view\n        returns (bytes memory)\n    {\n        bytes32 safeTxHash = keccak256(\n            abi.encode(SAFE_TX_TYPEHASH, to, value, keccak256(data), operation, safeTxGas, baseGas, gasPrice, gasToken, refundReceiver, _nonce)\n        );\n        return abi.encodePacked(byte(0x19), byte(0x01), domainSeparator, safeTxHash);\n    }\n\n    /// @dev Returns hash to be signed by owners.\n    /// @param to Destination address.\n    /// @param value Ether value.\n    /// @param data Data payload.\n    /// @param operation Operation type.\n    /// @param safeTxGas Fas that should be used for the safe transaction.\n    /// @param baseGas Gas costs for data used to trigger the safe transaction.\n    /// @param gasPrice Maximum gas price that should be used for this transaction.\n    /// @param gasToken Token address (or 0 if ETH) that is used for the payment.\n    /// @param refundReceiver Address of receiver of gas payment (or 0 if tx.origin).\n    /// @param _nonce Transaction nonce.\n    /// @return Transaction hash.\n    function getTransactionHash(\n        address to,\n        uint256 value,\n        bytes memory data,\n        Enum.Operation operation,\n        uint256 safeTxGas,\n        uint256 baseGas,\n        uint256 gasPrice,\n        address gasToken,\n        address refundReceiver,\n        uint256 _nonce\n    )\n        public\n        view\n        returns (bytes32)\n    {\n        return keccak256(encodeTransactionData(to, value, data, operation, safeTxGas, baseGas, gasPrice, gasToken, refundReceiver, _nonce));\n    }\n}\n",
  "sourcePath": "/Users/admin/Documents/GitHub/contracts/safe-contracts/contracts/GnosisSafe.sol",
  "compiler": {
    "name": "solc",
    "version": "0.5.11+commit.c082d0b4.Emscripten.clang"
  },
  "schemaVersion": "2.0.3",
  "updatedAt": "2019-11-10T01:32:19.341Z"
}